{
  "fileName": "Counter.sol",
  "contractName": "Counter",
  "source": "pragma solidity ^0.5.0;\n\nimport \"@openzeppelin/contracts-ethereum-package/contracts/GSN/GSNRecipient.sol\";\n\ncontract Counter is GSNRecipient {\n  uint256 public value;\n\n  function increase() public {\n    value += 1;\n  }\n\n  function decrease() public {\n    value -= 1;\n  }\n\n  function acceptRelayedCall(\n    address relay,\n    address from,\n    bytes calldata encodedFunction,\n    uint256 transactionFee,\n    uint256 gasPrice,\n    uint256 gasLimit,\n    uint256 nonce,\n    bytes calldata approvalData,\n    uint256 maxPossibleCharge\n  ) external view returns (uint256, bytes memory) {\n    return _approveRelayedCall();\n  }\n}",
  "sourcePath": "contracts/Counter.sol",
  "abi": [
    {
      "anonymous": false,
      "inputs": [
        {
          "indexed": true,
          "internalType": "address",
          "name": "oldRelayHub",
          "type": "address"
        },
        {
          "indexed": true,
          "internalType": "address",
          "name": "newRelayHub",
          "type": "address"
        }
      ],
      "name": "RelayHubChanged",
      "type": "event"
    },
    {
      "constant": true,
      "inputs": [
        {
          "internalType": "address",
          "name": "relay",
          "type": "address"
        },
        {
          "internalType": "address",
          "name": "from",
          "type": "address"
        },
        {
          "internalType": "bytes",
          "name": "encodedFunction",
          "type": "bytes"
        },
        {
          "internalType": "uint256",
          "name": "transactionFee",
          "type": "uint256"
        },
        {
          "internalType": "uint256",
          "name": "gasPrice",
          "type": "uint256"
        },
        {
          "internalType": "uint256",
          "name": "gasLimit",
          "type": "uint256"
        },
        {
          "internalType": "uint256",
          "name": "nonce",
          "type": "uint256"
        },
        {
          "internalType": "bytes",
          "name": "approvalData",
          "type": "bytes"
        },
        {
          "internalType": "uint256",
          "name": "maxPossibleCharge",
          "type": "uint256"
        }
      ],
      "name": "acceptRelayedCall",
      "outputs": [
        {
          "internalType": "uint256",
          "name": "",
          "type": "uint256"
        },
        {
          "internalType": "bytes",
          "name": "",
          "type": "bytes"
        }
      ],
      "payable": false,
      "stateMutability": "view",
      "type": "function"
    },
    {
      "constant": false,
      "inputs": [],
      "name": "decrease",
      "outputs": [],
      "payable": false,
      "stateMutability": "nonpayable",
      "type": "function"
    },
    {
      "constant": true,
      "inputs": [],
      "name": "getHubAddr",
      "outputs": [
        {
          "internalType": "address",
          "name": "",
          "type": "address"
        }
      ],
      "payable": false,
      "stateMutability": "view",
      "type": "function"
    },
    {
      "constant": false,
      "inputs": [],
      "name": "increase",
      "outputs": [],
      "payable": false,
      "stateMutability": "nonpayable",
      "type": "function"
    },
    {
      "constant": false,
      "inputs": [],
      "name": "initialize",
      "outputs": [],
      "payable": false,
      "stateMutability": "nonpayable",
      "type": "function"
    },
    {
      "constant": false,
      "inputs": [
        {
          "internalType": "bytes",
          "name": "context",
          "type": "bytes"
        },
        {
          "internalType": "bool",
          "name": "success",
          "type": "bool"
        },
        {
          "internalType": "uint256",
          "name": "actualCharge",
          "type": "uint256"
        },
        {
          "internalType": "bytes32",
          "name": "preRetVal",
          "type": "bytes32"
        }
      ],
      "name": "postRelayedCall",
      "outputs": [],
      "payable": false,
      "stateMutability": "nonpayable",
      "type": "function"
    },
    {
      "constant": false,
      "inputs": [
        {
          "internalType": "bytes",
          "name": "context",
          "type": "bytes"
        }
      ],
      "name": "preRelayedCall",
      "outputs": [
        {
          "internalType": "bytes32",
          "name": "",
          "type": "bytes32"
        }
      ],
      "payable": false,
      "stateMutability": "nonpayable",
      "type": "function"
    },
    {
      "constant": true,
      "inputs": [],
      "name": "relayHubVersion",
      "outputs": [
        {
          "internalType": "string",
          "name": "",
          "type": "string"
        }
      ],
      "payable": false,
      "stateMutability": "view",
      "type": "function"
    },
    {
      "constant": true,
      "inputs": [],
      "name": "value",
      "outputs": [
        {
          "internalType": "uint256",
          "name": "",
          "type": "uint256"
        }
      ],
      "payable": false,
      "stateMutability": "view",
      "type": "function"
    }
  ],
  "bytecode": "0x60806040525b5b61000b565b610cd68061001a6000396000f3fe60806040523480156100115760006000fd5b50600436106100985760003560e01c806383947ea01161006757806383947ea0146101ab578063ad61ccd514610378578063d732d955146103fc578063e06e0e2214610406578063e8927fbc146104a957610098565b80633fa4f2451461009e57806374e861d6146100bc57806380274db7146101065780638129fc1c146101a157610098565b60006000fd5b6100a66104b3565b6040518082815260200191505060405180910390f35b6100c46104bc565b604051808273ffffffffffffffffffffffffffffffffffffffff1673ffffffffffffffffffffffffffffffffffffffff16815260200191505060405180910390f35b6101836004803603602081101561011d5760006000fd5b810190808035906020019064010000000081111561013b5760006000fd5b82018360208201111561014e5760006000fd5b803590602001918460018302840111640100000000831117156101715760006000fd5b909192939090919293905050506104d6565b60405180826000191660001916815260200191505060405180910390f35b6101a96105cb565b005b6102f560048036036101208110156101c35760006000fd5b81019080803573ffffffffffffffffffffffffffffffffffffffff169060200190929190803573ffffffffffffffffffffffffffffffffffffffff169060200190929190803590602001906401000000008111156102215760006000fd5b8201836020820111156102345760006000fd5b803590602001918460018302840111640100000000831117156102575760006000fd5b9091929390909192939080359060200190929190803590602001909291908035906020019092919080359060200190929190803590602001906401000000008111156102a35760006000fd5b8201836020820111156102b65760006000fd5b803590602001918460018302840111640100000000831117156102d95760006000fd5b90919293909091929390803590602001909291905050506106e6565b6040518083815260200180602001828103825283818151815260200191508051906020019080838360005b8381101561033c5780820151818401525b602081019050610320565b50505050905090810190601f1680156103695780820380516001836020036101000a031916815260200191505b50935050505060405180910390f35b610380610711565b6040518080602001828103825283818151815260200191508051906020019080838360005b838110156103c15780820151818401525b6020810190506103a5565b50505050905090810190601f1680156103ee5780820380516001836020036101000a031916815260200191505b509250505060405180910390f35b610404610758565b005b6104a76004803603608081101561041d5760006000fd5b810190808035906020019064010000000081111561043b5760006000fd5b82018360208201111561044e5760006000fd5b803590602001918460018302840111640100000000831117156104715760006000fd5b90919293909091929390803515159060200190929190803590602001909291908035600019169060200190929190505050610770565b005b6104b1610861565b005b60336000505481565b60006104cc61087963ffffffff16565b90506104d3565b90565b60006104e66104bc63ffffffff16565b73ffffffffffffffffffffffffffffffffffffffff163373ffffffffffffffffffffffffffffffffffffffff1614151561056b576040517f08c379a0000000000000000000000000000000000000000000000000000000008152600401808060200182810382526026815260200180610bf76026913960400191505060405180910390fd5b6105be83838080601f016020809104026020016040519081016040528093929190818152602001838380828437600081840152601f19601f820116905080830192505050505050506108ac63ffffffff16565b90506105c5565b92915050565b600060019054906101000a900460ff16806105f057506105ef6108b463ffffffff16565b5b806106085750600060009054906101000a900460ff16155b151561065f576040517f08c379a000000000000000000000000000000000000000000000000000000000815260040180806020018281038252602e815260200180610c48602e913960400191505060405180910390fd5b6000600060019054906101000a900460ff1615905080156106b1576001600060016101000a81548160ff0219169083151502179055506001600060006101000a81548160ff0219169083151502179055505b6106bf6108cc63ffffffff16565b5b80156106e2576000600060016101000a81548160ff0219169083151502179055505b505b565b600060606106f86109fc63ffffffff16565b91509150610701565b9b509b9950505050505050505050565b606030506040518060400160405280600581526020017f312e302e300000000000000000000000000000000000000000000000000000008152602001509050610755565b90565b6001603360008282825054039250508190909055505b565b61077e6104bc63ffffffff16565b73ffffffffffffffffffffffffffffffffffffffff163373ffffffffffffffffffffffffffffffffffffffff16141515610803576040517f08c379a0000000000000000000000000000000000000000000000000000000008152600401808060200182810382526026815260200180610bf76026913960400191505060405180910390fd5b61085985858080601f016020809104026020016040519081016040528093929190818152602001838380828437600081840152601f19601f82011690508083019250505050505050848484610a2e63ffffffff16565b5b5050505050565b6001603360008282825054019250508190909055505b565b600060007f06b7792c761dcc05af1761f0315ce8b01ac39c16cc934eb0b2f7a8e71414f26260001b905080549150505b90565b60005b919050565b60006000303b9050600081149150506108c956505b90565b600060019054906101000a900460ff16806108f157506108f06108b463ffffffff16565b5b806109095750600060009054906101000a900460ff16155b1515610960576040517f08c379a000000000000000000000000000000000000000000000000000000000815260040180806020018281038252602e815260200180610c48602e913960400191505060405180910390fd5b6000600060019054906101000a900460ff1615905080156109b2576001600060016101000a81548160ff0219169083151502179055506001600060006101000a81548160ff0219169083151502179055505b6109d573d216153c06e857cd7f72665e0af1d7d82172f494610a3563ffffffff16565b5b80156109f8576000600060016101000a81548160ff0219169083151502179055505b505b565b60006060610a2160405180602001604052806000815260200150610be163ffffffff16565b91509150610a2a565b9091565b5b50505050565b6000610a4561087963ffffffff16565b9050600073ffffffffffffffffffffffffffffffffffffffff168273ffffffffffffffffffffffffffffffffffffffff1614151515610acf576040517f08c379a000000000000000000000000000000000000000000000000000000000815260040180806020018281038252602c815260200180610c76602c913960400191505060405180910390fd5b8073ffffffffffffffffffffffffffffffffffffffff168273ffffffffffffffffffffffffffffffffffffffff1614151515610b56576040517f08c379a000000000000000000000000000000000000000000000000000000000815260040180806020018281038252602b815260200180610c1d602b913960400191505060405180910390fd5b8173ffffffffffffffffffffffffffffffffffffffff168173ffffffffffffffffffffffffffffffffffffffff167fb9f84b8e65164b14439ae3620df0a4d8786d896996c0282b683f9d8c08f046e860405160405180910390a360007f06b7792c761dcc05af1761f0315ce8b01ac39c16cc934eb0b2f7a8e71414f26260001b905082815550505b50565b6000606060008391509150610bf1565b91509156fe47534e426f756e636572426173653a2063616c6c6572206973206e6f742052656c617948756247534e436f6e746578743a206e65772052656c6179487562206973207468652063757272656e74206f6e65436f6e747261637420696e7374616e63652068617320616c7265616479206265656e20696e697469616c697a656447534e436f6e746578743a206e65772052656c617948756220697320746865207a65726f2061646472657373a265627a7a72315820dbdc784984dbe5c3f30645567a8555b9dbdcef64e276b8d650fd2b947040e97764736f6c634300050c0032",
  "compiler": {
    "name": "solc",
    "version": "0.5.12+commit.7709ece9.Emscripten.clang",
    "optimizer": {},
    "evmVersion": "constantinople"
  }
}